S00E00004D617269616D2E73726563BF
S11300000C942A000C9424010C9447000C9447008F
S11300100C9447000C9447000C9447000C94470040
S11300200C9447000C9447000C949F010C947601A7
S11300300C9447000C9447000C9447000C94470020
S11300400C9447000C9447000C9447000C94470010
S11300500C94470011241FBECFE5D8E0DEBFCDBF0E
S113006010E0A0E6B0E0ECEAF3E002C005900D92E7
S1130070A036B107D9F720E0A0E6B0E001C01D9298
S1130080A636B207E1F70E9449000C94D4010C94FF
S113009000000E944B0161E087E10E9486000E94FB
S11300A0580184E190E00E945F012FEF87EA91E616
S11300B0215080409040E1F700C0000082E390E0CE
S11300C00E945F012FEF87EA91E621508040904023
S11300D0E1F700C0000086E490E00E945F012FEF8A
S11300E087EA91E6215080409040E1F700C000008B
S11300F084E690E00E945F012FEF87EA91E62150A9
S113010080409040E1F700C00000CBCF282F3DECA9
S1130110839F312D1124932F969596959695892F2B
S1130120880F982F990F990F890F922F981B369546
S113013036953695662321F0613009F084C045C0B8
S11301403230C9F020F4313009F07DC006C03330BC
S113015001F1343009F077C02AC04AB321E030E01D
S1130160B90102C0660F771F9A95E2F7CB0180951B
S113017084238ABB089547B321E030E0B90102C06B
S1130180660F771F9A95E2F7CB018095842387BB8E
S1130190089544B321E030E0B90102C0660F771F2F
S11301A09A95E2F7CB018095842384BB089541B3EB
S11301B021E030E0B90102C0660F771F9A95E2F79B
S11301C0CB018095842381BB08953230B1F018F4BB
S11301D03130C9F505C03330E9F03430A1F527C01A
S11301E04AB321E030E0B90102C0660F771F9A9547
S11301F0E2F7CB01842B8ABB089547B321E030E0BA
S1130200B90102C0660F771F9A95E2F7CB01842BE0
S113021087BB089544B321E030E0B90102C0660F02
S1130220771F9A95E2F7CB01842B84BB089541B3E1
S113023021E030E0B90102C0660F771F9A95E2F71A
S1130240CB01842B81BB08951F920F920FB60F929E
S113025011242F933F934F935F936F937F938F93C7
S11302609F93AF93BF93EF93FF93E0916400F0915A
S113027065000995FF91EF91BF91AF919F918F9187
S11302807F916F915F914F913F912F910F900FBE8E
S11302900F901F90189583B7806483BF83B78860DD
S11302A083BF83B78F7C83BF83B7806383BF089585
S11302B083B7887F83BF83B7846083BF0895382F53
S11302C020E03695279536952795ABE7B4E10E9453
S11302D0C8019C01369527958FEF90E0821B930B04
S11302E01AF49195819591098CBF08951F920F92EC
S11302F00FB60F9211242F933F934F935F936F93F5
S11303007F938F939F93AF93BF93EF93FF93E0916A
S11303106000F0916100309709F00995FF91EF9129
S1130320BF91AF919F918F917F916F915F914F9109
S11303303F912F910F900FBE0F901F9018951F9211
S11303400F920FB60F9211242F933F934F935F9305
S11303506F937F938F939F93AF93BF93EF93FF9389
S1130360E0916200F0916300309709F00995FF91E4
S1130370EF91BF91AF919F918F917F916F915F9119
S11303804F913F912F910F900FBE0F901F90189592
S1130390A29FB001B39FC001A39F01D0B29F700D73
S10F03A0811D1124911D0895F894FFCFD5
S9030000FC
